:1000000000000120750300005D0300005F03000095
:1000100061030000630300006503000000000000AE
:100020000000000000000000000000006703000066
:1000300069030000000000006B0300006D03000076
:100040006F0300006F030000F91E0000551F000041
:100050006F0300006F030000751D00006F030000B8
:100060006F0300006F0300006F0300006F030000C8
:100070006F0300006F0300006F0300006F030000B8
:100080006F030000E90D00006F0300006F03000024
:10009000850E00006F0300006F0300006F03000077
:1000A0006F0300006F0300006F0300006F03000088
:1000B0006F0300006F03000000000000000000005C
:1000C0006F0300006F0300006F0300006F03000068
:1000D0006F0300006F0300006F03000000000000CA
:1000E0000000000000000000000000000000000010
:1000F0000000000000000000000000000000000000
:1001000000000000000000000000000000000000EF
:1001100000000000000000000000000000000000DF
:1001200000000000000000000000000000000000CF
:1001300000000000000000000000000000000000BF
:1001400000000000000000000000000000000000AF
:10015000000000000000000000000000000000009F
:10016000000000000000000000000000000000008F
:10017000000000000000000000000000000000007F
:10018000000000000000000000000000000000006F
:10019000000000000000000000000000000000005F
:1001A000000000000000000000000000000000004F
:1001B000000000000000000000000000000000003F
:1001C000000000000000000000000000000000002F
:1001D000000000000000000000000000000000001F
:1001E000000000000000000000000000000000000F
:1001F00000000000000000000000000000000000FF
:10020000354936480A1A02D0072291438D463449AF
:1002100034480A1A06D00722914381F30988022242
:1002200082F3148830483149314A00F044F83148AB
:100230003149324A00F03FF831483249324A00F041
:100240003AF832483249334A00F035F832483349F7
:10025000334A00F030F833483349344A00F02BF881
:1002600033483449344A00F026F8344834490022EF
:1002700000F02CF833483449002200F027F83348C6
:100280003349091A082902DB002202604160314A21
:1002900090471F481F49884205D00268043003B4C4
:1002A000904703BCF7E700208646EC46002000217B
:1002B000294A9047FEE7884207D0521A05D00378B2
:1002C00001300B700131013AF9D17047884202D0F8
:1002D00002700130FAE770470000012000E00020C2
:1002E00000000120000001209044000000000020D8
:1002F00078000020D4030000D40300005C3F00001D
:10030000904400000000002000000020B03F0000EA
:10031000B03F0000B03F0000B03F0000B03F000021
:10032000B03F0000B03F0000B03F00008F4400002D
:1003300008450000780000207800002078000020A8
:10034000280A0020280A0020280A0020280A002065
:10035000282A00209D030000412D0000FEE7FEE753
:10036000FEE7FEE7FEE7FEE7FEE7FEE7FEE7FEE765
:10037000704700BF1048804710484FF0070188437E
:1003800085460F4880470F48016841F470010160BD
:10039000BFF34F8FBFF36F8FFFF732BF0A480B4990
:1003A0000B4A884207D0521A05D0037801300B70EF
:1003B0000131013AF9D170477103000000000120BA
:1003C0002D2F000088ED00E0B03F0000000000206D
:0403D0000000002009
:1003D400F0B595B01D46164608460C4601F09AF94C
:1003E4001A9B0D93CDE9086500252B46082205A923
:1003F40020460A958DF82C500C9501F0A8F9079B1E
:100404000293069B03939DF814308DF8115003F06A
:100414000302012A1DD1BDF81420059DC3F3C203B4
:10042400C2F383168DF81030B20008230EA92046BB
:1004340001F08DF9C5F3952508AB0093324602AB64
:100444000EA9284600F068FB204601F067F915B0B4
:10045400F0BD022AF8D1BDF81650C3F3C203C5F3A8
:1004640089158DF810300827082D2E4628BF082638
:100474003B4632460EA9204601F069F9AD1B08AB94
:1004840002AA31460EA8374400F0AAFB002DEBD196
:10049400DAE70000014B01221A707047B90000200E
:1004A4007047000070B5124D06460FCD88B06C46FB
:1004B4000FC495E80F00002E84E80F004FF0FF33BF
:1004C4004FF00602CDE90023CDE90233094A0A4878
:1004D4004FF0EB7308BF00226946069301F0F2FA6D
:1004E40008B100F00FFC054B1E7008B070BD00BFD2
:1004F400B03F0000990400000000002078000020B4
:1005040007B5044B0093044A4023FFF761FF03B08F
:100514005DF804FB210500007900002038B50D4B7F
:100524000D4D002018700D4804782D5DD2B21C4684
:1005340065B1043002F030FB08B100F0E3FB084B76
:100544001A7812B12378002BFBD038BD0C3002F09E
:10055400A9F8F1E7B90000202407002000000020DA
:100564007800002008B50848084A0378D35C3BB1FA
:10057400043002F0AFFABDE808400020FFF792BF54
:100584000C3002F02DF8F6E70000002024070020CC
:10059400037813F0040216D003F00303012B03D0F5
:1005A400022B09D0012070470A6800880232C0F388
:1005B400831002440A60F5E70B684288023303EBB8
:1005C40092130B60EEE71046704700002DE9F04FE0
:1005D400044685B0861C00200F46154600F0C0FD79
:1005E400454801683960D0E90132134401335B1A8C
:1005F400824600F21C4700F5836900F21448B342B6
:100604001BD30020002D72D004F00F039B0143F094
:10061400050363F30F00DAF80020DAF8083013401A
:10062400033316444AF823000020CAF8006000F09F
:1006340099FD012005B0BDE8F08F0121384600F096
:10064400B6FD484600F0CBFD404600F0C8FDDAF8A0
:100654000400DAF808B0009000EA0B0003300AEB5B
:1006640080006946FFF794FF009B50BB0BEA03022E
:100674000AEB820203F1020CD2680192013303EA0D
:100684000B0B0AEB8B0B02F00302012ADBF80C10B4
:10069400CDF800C023D0022A16D08346404600F08D
:1006A400A1FD10B1009BCAF804305946384600F049
:1006B4007EFDDAE901231344DAF8002001339B1AA2
:1006C4009DE70BEA0300C9E7BDF80630C3F38913BD
:1006D40003334FEA114B0CEB93030093DEE7BDF8B1
:1006E4000430C3F383134FEA114B6344F5E7A405C5
:1006F40044F006008FE700BF8C01002030B50A4C9F
:1007040071B10A4A0A49121BD20800239A4201D144
:10071400002030BD31F82350854202D00133F5E783
:10072400034654F83300F4E75C3F00008C3F0000BC
:1007340000000020094B013903EBC000032909D84C
:10074400DFE801F00A0204060420704700797047CC
:100754004079704700207047022070475C3F0000DA
:10076400034BD3E90030C31A58425841704700BFC5
:100774008C0100202DE9F04385B0FFF7F1FF064618
:10078400002840F0F5807B4DC5F81804BFF34F8F67
:100794006B68AC6800932340033305EB8300694620
:1007A400FFF7F6FE009B18B1D5F81824002A5FD095
:1007B40004EA0302991C013305EB8202234005EB92
:1007C4008303D268DB68029302F00303022B0192D5
:1007D400009160D1BDF806306748C3F38917502FE4
:1007E400B84628BF4FF0500868F38F1308F108018A
:1007F400ADF8063000F05FFF0646002800F0A38045
:1008040000F088FF0023082201A9304600F095FF7C
:10081400009924EA01020132B8EB820F4FEA820305
:1008240032D95FFA88F85BB32140DCB2A8EB040844
:1008340003315FFA88F9A046504C05EB8101082387
:100844004246304600F079FF34B108F108034A46C5
:100854002146304600F071FF009B033703EB9707F6
:100864000097D5F81834002B49D1D5F8104459E035
:100874002A689A428FD86A60304605B0BDE8F08392
:100884003E491C469946DAE70C40E11C08234246DF
:1008940005EB8101DDE7012B55D1BDF80430364865
:1008A400C3F38311062928BF062161F3891302319A
:1008B4008900ADF8043000F0FEFE0646002842D060
:1008C40000F028FF0023082201A9304600F035FF7C
:1008D4000027BDF80420C2F38312BB00974203F142
:1008E4000803BED200994A1C21400331009205EB53
:1008F40081010422304600F020FF0137E9E7304649
:1009040000F00CFFFFF72CFF80F00100C6B2B3E744
:10091400E3685B7923B1236831461B682046984716
:10092400E3681C68002CF3D1304600F0F7FE204643
:1009340000F016FCD5F818340BB9009B6B6000204E
:1009440000F010FCDEE7D5F8104454B90C4B0D4808
:100954000D49C01AC008000440F0020000F062F81B
:10096400D0E7236820469B689847E3681C68ECE757
:10097400002681E78C0100209C3F000098010020A4
:100984005C3F0000843F0000ED3F00002DE9F74F7D
:10099400224D04460F46924601A901221846D5F875
:1009A40008909B46FFF712FE20B3019E4FF000080B
:1009B400B21CD84508EB020126D11948002100F0E9
:1009C400D3FB80F31000000440EA1440E400731CDD
:1009D40004F0380403EA090306EA090644F00104B2
:1009E40005EB8303033644EA881444EA8724D86079
:1009F40045F8264095F820341BB1FFF7BBFE0028CC
:100A0400FBD103B0BDE8F08F09EA010105EB8101D8
:100A14005AF82830CB6008F10108CAE78C0100209D
:100A2400A805002000231A46FFF7B0BF094A38B5CD
:100A34000123D2F8104482F820341D4604B938BD8D
:100A4400E3685D71236820465B689847E3681C6827
:100A5400F4E700BF8C01002007B503460846197A65
:100A6400052911D05B7A2BB1094A0A49019000F09B
:100A7400FCFB01980849019000F0F7FB019803B0D2
:100A84005DF804EB00F0E6BB002AF8D0F2E700BF03
:100A940002400000074000006A41000030B5C388EE
:100AA40085B004460D4633B1144A00921449154AE0
:100AB400284600F0DAFB217A05291DD0637A4BB170
:100AC400A088FFF737FE104B104953F82020284622
:100AD40000F0CBFB227A0E4BA08853F8222003921D
:100AE4000021FFF70BFE039A0A490346284605B086
:100AF400BDE8304000F0B9BB05B030BD0240000095
:100B0400124000000A40000090400000074000002E
:100B1400B44000002A4000002DE9F04385B01F4690
:100B24000C9D002395F80C902B7306460C469046BA
:100B340029463846FFF7B2FFB8F1060F09D8DFE8B7
:100B440008F00412181F283340003146284600F0EC
:100B54008CFB002229463846FFF77EFF85F80C906F
:100B640005B0BDE8F08322683146284600F07DFBDD
:100B7400EFE7D4E900233146284600F076FBE8E7A6
:100B8400A36800933146D4E90023284600F06DFBA6
:100B9400DFE7E3680193A36800933146D4E90023B7
:100BA400284600F062FBD4E723690293E3680193CB
:100BB400A36800933146D4E90023284600F055FB8E
:100BC400C7E76369039323690293E3680193A36806
:100BD40000933146D4E90023284600F046FBB8E7E9
:100BE40008292DE9F74F80460E4617461C463CD887
:100BF400002593F80C901D7319461046FFF74EFF1D
:100C0400DFF888A0DFF888B0AE4231D918F80520A3
:100C14005946204600F029FB0135082DF4D1194925
:100C2400194DDFF870A0204600F01FFB4FF0000BB9
:100C34005E4522D918F80B207E2A05D81046019269
:100C440002F092FD019A00B92E225146204600F08E
:100C54000CFB0BF1010BBBF1080FE9D1012221467A
:100C64003846FFF7F9FE84F80C9003B0BDE8F08F26
:100C74005146204600F0F9FACEE72946204600F016
:100C8400F4FAE6E73E4000003C4000003A40000031
:100C94003440000040400000044B1A5C01239340A0
:100CA4004FF0A042C2F80835704700BFC8400000AA
:100CB40008B50020FFF7F0FF0120FFF7EDFF022049
:100CC400FFF7EAFFBDE808400320FFF7E5BFC207CE
:100CD40008B501460CD54FF0A0430322C3F84C27B6
:100CE400C3F84C27C3F85027C3F85027FFF7E0FF99
:100CF4008B0741BF4FF0A0430C22C3F87027C3F801
:100D04006C2708BD1FB50021039001AA44F201001D
:100D1400CDE9011100F004F805B05DF804FB000012
:100D240010B572B6FFF782FEFFF724FD0028FBD151
:100D3400104B114C1149E41AE408240444F0010056
:100D4400FFF770FE0E4B1B68DB0700D500BE0D4994
:100D540044F00200FFF766FEBFF34F8F0A490B4BC6
:100D6400CA6802F4E0621343CB60BFF34F8F00BF45
:100D7400FDE700BF5C3F0000843F0000CC40000062
:100D8400F0ED00E0D840000000ED00E00400FA05BA
:100D9400024B4FF43C6043F001031847F04000005D
:100DA40038B50C4B0C4C4FF40032C3F880200125AD
:100DB4004FF48033C4F84833C4F808336560FFF750
:100DC400E7FF064BA56000241C60FFF7E1FF044B1E
:100DD4001C7038BD00E100E000100140CC0600208A
:100DE400BD060020F8B51F4B1F491B680025C1F83C
:100DF4004051C1F84451C1F84851C1F84C51C1F8AF
:100E04000051C1F804514BB3D1F80445174909689E
:100E1400641A24F07F442F461A68A24209D8A41AFF
:100E240015441A7CDE691AB1D3E905201F74904772
:100E3400AEB90F4A0F4B11781B788B4205D10133A1
:100E4400DBB2022B08BF0023137012780A4B43F85D
:100E540022500A4B4FF48012C3F80021F8BD3346E8
:100E6400DAE700BFD006002000100140CC060020C5
:100E7400C9060020C8060020C006002000E100E0EA
:100E84002DE9F04FA24AA34913780978A24D99425B
:100E940085B03CD00133DBB2022B08BF00231370B2
:100EA4009E4912789E4B0F6853F822003B1823F09A
:100EB4007F4300220B602B6816461446944613B9F0
:100EC40042B12B6006E0196881420ED902B12B6051
:100ED400091A196001272B68DFF84CA201934FF01F
:100EE4000008BEB9DFF848B262E0401A0C44D96881
:100EF400D3F81CE0C3F800C031B13A1922F07F42A4
:100F0400C3E90121DE611E4673460122D7E70026AC
:100F14003746E0E73446F669804A63681268DFF8CA
:100F240014C2A068991A21F07F41614500F2A8809B
:100F340001442160012222742A680023C4E9013398
:100F4400E361002A40F0A5802C60CAE79BF80210F8
:100F54005A1CD2B291428BF8002004BF00228BF8B5
:100F64000020182202FB03B32A6819799C6802291D
:100F740077D0032900F08180012919D1207CB8B9E8
:100F8400D3E90312A2605A69E2609A69654BA261CF
:100F94001B78002B0CBF0B4603466360BCE78C42F6
:100FA40000F094808946C9690029F8D1002323748C
:100FB4009BF800309BF801209A42C7D12B68B8F106
:100FC400000F04D1019A9A4201D1002F43D0002B83
:100FD40079D0D3F800A0544D504BD5F804751C6853
:100FE400DFF854813E1B98F8003026F07F46033624
:100FF4009BB94FF48033C5F84433C5F804334B4BE5
:101004004FF400324FF00109C3F880211A60C5F88B
:101014000090FFF7BDFE88F80090B2452CBF544401
:10102400A41924F07F44C5F84045D5F80435DB1BEA
:1010340023F07F43E41B033324F07F44A3420AD903
:10104400D5F80435C5F84035FFF7A2FE374B4FF409
:101054000032C3F80021334B00221A7005B0BDE8FA
:10106400F08F114691469FE71174D2690123002A3B
:10107400FAD1002B9CD02A609AE700231946F6E7A0
:10108400D31A23F07F43834234BFC31A002323605F
:1010940050E721681368994213D8591A1160E26124
:1010A40052E7091AD8691A4638B1034618688842C3
:1010B400F7D3401A1860184613462160E061DC61DA
:1010C4000FE71346F2E7FFF76BFEC4E74C4511D177
:1010D400D3692B6073B9DFF844E00120CDE9021233
:1010E400CAF80800CEF800300E4B1870FFF750FE17
:1010F400DDE902120B68C969C9F81C1011B108684E
:1011040003440B602B68934218BF4FF001084DE76E
:10111400C8060020C9060020D0060020CC06002006
:10112400C0060020BC0600200010014000E100E0E1
:10113400B0050020FEFF7F00BD06002072B6024A03
:101144001368013313607047D4060020034A136800
:10115400013B136003B962B6704700BFD406002098
:10116400FFF7ECBFFFF7F2BF10B5034653E8000FDB
:101174000A4643E8002494F0000FF7D110BD10B5DF
:10118400034653E8002F42EA010043E8000494F0C8
:10119400000FF6D110BD10B5034653E8000F00EA66
:1011A400010243E8002494F0000FF6D110BD10B5FD
:1011B400034653E8002F02EB010043E8000494F0D7
:1011C400000FF6D110BD10B5034653E8002FA2EB73
:1011D400010043E8000494F0000FF6D110BD012192
:1011E400FFF7CDBF0021FFF7D6BF38B50446002076
:1011F400FFF7B6FF226863681168994213D9481E45
:10120400106011F8015CE368218A01FB0535A368CD
:1012140011791B1ADBB2994200D213710020FFF737
:10122400A1FF284638BD0025F8E738B5054600205B
:101234000C46FFF795FF2A681368591C1160E9688A
:10124400641A298AB4FBF1F41C70BDE8384000200C
:10125400FFF788BF826810B504462AB14369016864
:10126400006998470023A36010BD0EB403B5039929
:1012740021B104AB01AA019300F076F802B05DF845
:1012840004EB03B070470A2938B504460D4602D171
:101294000D21FFF7F8FFA3682268591CA160D554FB
:1012A400D4E901329A4204D32046BDE83840FFF71E
:1012B400D1BF38BD2DE9F84F9846DDE90A431546FC
:1012C40082460F460A464FF00109AA420FD2C14591
:1012D40038BFC14613F0010B01D16CB900240126BB
:1012E400B8F1010F1BD908F1FF386E43F8E709F193
:1012F4000109B2FBF5F2E8E79B070ED5B8F1000F40
:101304000CBF30262026A145E9D2013C3146504687
:10131400FFF7B9FF002CF6D1E0E72026F3E7B7FB8F
:10132400F6F39D42E1D9DFF83C80B7FBF6F3504673
:1013340018F8031006FB1377FFF7A5FF3346AB42FB
:10134400B6FBF5F6F1D2BBF1000F02D00CB1A1450A
:1013540001D3BDE8F88F20215046013CFFF793FFED
:10136400F4E700BFF64000002DE9F74F05461746A5
:101374008846002900F0428118F8011B49B92B7BEB
:10138400002B00F03B81284603B0BDE8F04FFFF787
:1013940061BF252940F0B780002698F800302D2B36
:1013A400424608F1010823D0302B24D02B2B25D022
:1013B40000242A2B02F1010123D13B681A1D1B686A
:1013C4003A601C440A4613782E2B26D101324FF082
:1013D400000A104610F8011BA1F1300CBCF1090FF2
:1013E4001DD80A2303FB0A13A3F1300A0246F0E7CF
:1013F40046F00106D1E746F00206CEE746F00406C1
:10140400CBE711F8013CA3F130000928DBD80A220C
:1014140002FB0434303C0A46CBE74FF0000A12F8D2
:10142400011B01F0FB0068289046F8D0782909D800
:101434006F290CD8632962D022D8252963D0582972
:1014440000F0888098F80030002B95D197E7703928
:101454000829F7D801A353F821F000BFDB150000D9
:1014640049140000491400006915000049140000E3
:1014740047150000491400004914000059150000E4
:10148400642901D06929DDD13A68D2F80090111D90
:1014940089EAE9723960A2EBE9724FF0010B092A7B
:1014A40035DCD34538BFD3462CB1B9F1000F01DB8D
:1014B400720700D5013CB30702D5BAF1000F03D07F
:1014C400F00701D44CBB0024B9F1000F2DDAC9F1A7
:1014D40000092D212846FFF7D6FE06F00302022A52
:1014E40004D1BAF1000F01D11CBB0024CDE90046A0
:1014F40053460A2249462846FFF7DCFEA2E73B682A
:101504001A1D19783A602846FFF7BDFE9AE70A23A8
:101514000BF1010BB2FBF3F2C1E7A345D4D22021B6
:101524002846013CFFF7AFFECCE77107D5D52B2148
:10153400D0E7A345DAD230212846013CFFF7A3FEC9
:10154400D2E73968CDE900460A1D3A6053460A22BB
:101554000968D0E739680A1D3A60CDE90046534668
:101564001022F5E73B681A1D3A6016F00106D3F81D
:10157400009028D1B9F1000F03D0484602F087F952
:101584000646B44200D904BB09F1FF3919F8011F1A
:1015940000293FF457AF2846FFF775FEF6E72846C3
:1015A4000136FFF770FE19F806100029F7D1A6429C
:1015B400BFF448AF002C3FF445AF20212846013C3E
:1015C400FFF761FEF3E70026EDE720212846013C02
:1015D400FFF759FED5E73B681A1D3A6030212846CB
:1015E4001C68FFF750FE78212846FFF74CFE0022C6
:1015F4000823CDE90032214610227CE703B0BDE880
:10160400F08F00BF2DE9F84FB0F806A04579D2F865
:1016140000B09DF828900AFB05F5043D88460BEBC5
:101624000301A94203F1040488BFA5EB030BB4FB37
:10163400FAF607460AFB1644C2F800B04EB9AAEB04
:1016440004055D4528BF5D46BBF1000F04D1BDE82C
:10165400F88F3F68013EF1E7043408EB06003C4490
:101664002A46B9F1000F0DD02146ABEB050B02F071
:10167400B2F8DA452E443F6855464FF0000428BFBF
:101684005D46E1E701462046EFE7F8B546790146B5
:10169400721E0546002393422D6803D30024A642FC
:1016A40002D8F8BD0133F6E70F682846FFF7BDFD01
:1016B40001343946F3E72DE9F843068ACD1C074681
:1016C400FFF793FD043E35440446B5FBF6F5F0B14F
:1016D4004FF48073EDB28380C680013D076081467C
:1016E4004FF00008A84512D23846FFF77EFD0646A3
:1016F40048B163790133637108F10108C9F8000046
:1017040007608146EEE72046FFF7BFFF34462046D8
:10171400BDE8F88301210430FFF749BD10B501216C
:1017240004460430FFF74FFD10F0FF0F04D12046AC
:10173400BDE81040FFF7A9BF10BD1FB503920022FA
:10174400009203AAFFF75EFF05B05DF804FB1FB526
:1017540003920122009203AAFFF754FF05B05DF83B
:1017640004FB49B152B1531E1A4007D18260016093
:101774008380C260104670470E207047092070476E
:1017840010B58468C2688388121B934208D3C26868
:1017940013400268D154C3680133C360002010BDF4
:1017A4000420FCE78268C3689A420AD0826883886E
:1017B40013400268D35C0B7083680133836000209C
:1017C40070470520704710B50446C0B200F0CEF84B
:1017D400204610BD0648074A03780749D35C012216
:1017E40013B1043001F026BA0C3000F0ADBF00BFD5
:1017F4001C00002024070020000700200648074A98
:1018040003780749D35C012213B1043001F0C4B951
:101814000C3000F047BF00BF1C000020240700204C
:101824000107002037B50578012D0BD0022D2CD0EF
:10183400F5B91D491D48FFF7B5FF002830D1FFF762
:10184400DDFF15E043681A4C19782046FFF798FF2E
:1018540080B18DF800500190164B68461B6898477C
:10186400A168E368A2885B1A9A420AD3FFF7B2FF21
:1018740003B030BDA268E3689A42F1D08DF800004D
:10188400EAE70D4B01221A70F2E7C3688DF80050A5
:101894000193FFF79FFF074B68461B689847E7E7EC
:1018A40003238DF80030F6E701070020F00600203E
:1018B400DC060020D8060020EC060020F0B51F4608
:1018C400234B89B004461A600D4600293DD08A880E
:1018D40020480968FFF745FF002834D1AA89A96880
:1018E4001D48FFF73EFF00282DD11C4E0FCE6D463C
:1018F4000FC596E80F0085E80F0063690693237C03
:10190400174A18488DF81C70003B18BF01238DF846
:101914001430637C002B14BF0E2300238DF8153084
:10192400E3680293A3680393236801936946636899
:10193400009300F0C7F830B90B4B187023680133DB
:1019440001D0FFF747FF09B0F0BD0720FBE700BF58
:10195400D8060020DC060020F00600200841000024
:10196400291800001C000020EC06002010B50146D8
:101974000E48FFF705FF0446A8B90D480D4A037841
:10198400D35C63B1043001F049F960B90A490748EE
:10199400FFF708FF38B9BDE81040FFF72FBF0C3040
:1019A40000F0C6FEF1E7204610BD00BFF00600209F
:1019B4001C00002024070020010700207FB50378C5
:1019C4008DF804304368029383688DF80C30C36843
:1019D40004930369064A8DF81430064B01A853F8A2
:1019E400213052F82110984707B05DF804FB00BF7E
:1019F4000407002010070020F0B50546174615F827
:101A040004CB124A42F82C70114A42F82C30114B84
:101A14000C460FCB85B06E4686E80F002368009312
:101A240023798DF8053063798DF80630A368029325
:101A3400002FA389084AADF80C3008BF3A46634624
:101A44003146284600F0B0FA05B0F0BD100700207A
:101A54000407002028410000C11900001FB50378C5
:101A64008DF800304368019383688DF80830C368AB
:101A7400054A0393054B684653F8213052F8211068
:101A8400984705B05DF804FB1C07002020070020E0
:101A94001FB503788DF800304368019383688DF88F
:101AA4000830C368054A0393054B684653F8213050
:101AB40052F82110984705B05DF804FB1C0700207C
:101AC40020070020F0B5194B90F800C091F81DE0F4
:101AD40043F82C20164B16460A6943F82C20154B64
:101AE40003F80CE00C4607460FCC89B06D460FC5D1
:101AF40094E80F0085E80F00CDF810C0BEF1000F88
:101B040009D0002E0C4A694608BF3246381D00F041
:101B14001DFF09B0F0BD002E084A694608BF3246D1
:101B240007F10C0000F0A0FCF3E700BF2007002041
:101B34001C07002024070020611A0000951A0000E9
:101B440000F1804000F5C040002382B003600368C8
:101B54000193019B02B07047800000F1A040D0F8CF
:101B6400002722F44032C0F80027D0F8003743EAB7
:101B74000141C0F800177047054B4FF0FF320728AA
:101B840043F8202084BFC01880F84820704700BF65
:101B94002807002010B5174C94F8583043BB04F1C3
:101BA40030032021FF22013911F0FF0103F8012B3A
:101BB400F9D1C8B2FFF7E0FF01310C29F9D10422B1
:101BC40000210D4801F030FE0C4BC02283F806239F
:101BD40040221A604FF4BE70FFF7B2FF084B4FF07B
:101BE4000042C3F80423012384F85830002010BDB8
:101BF4000820FCE7280700207C07002000E100E023
:101C040000600040F0B5364D2C1894F93040002C9B
:101C140064DA8C78C4F34004002C0BBF082300233F
:101C24000C260826B34201D10420F0BD55F82370D8
:101C340001373FD12E1845F8232086F8303014B9E7
:101C4400EA1882F848008A78540713D4D60733D5A3
:101C5400820002F1A042D2F8004724F00204C2F844
:101C64000047204EC20800F007070124BC40B75CBF
:101C74003C43B4548A780C7812F0020225D09B00BD
:101C840003F1804303F5C0430202D3F8101521F495
:101C9400473121F44071C3F810152404D3F810150A
:101CA40002F4F85204F4403422430A43C3F81025E2
:101CB4000020BAE70133B5E74C7800F5E0724FF045
:101CC400A046A40046F82240CBE7083B2B4493F8F7
:101CD400501041EA841483F85040E9E70820A4E74F
:101CE400280700207C07002038B51F4C251895F9DB
:101CF4003020072A16DD224492F848309B09032B32
:101D04000BD14FF0A043D3F81015C14001F00101ED
:101D14000231BDE83840FFF71FBF012B0CBF022181
:101D24000321F6E7D3B2072B1CD8930003F18043B9
:101D340003F5C043D3F8100540F00100C3F81005C3
:101D440002F14000800080B2FFF7FAFE51B195F92C
:101D5400303054F823302BB1012303FA02F2034B41
:101D6400C3F8042338BD00BF2807002000600040EA
:101D74002DE9F04F87B000245A4D03944FF480723C
:101D8400012102F1804303F5C04390B21B68012B8B
:101D940006D1D5F804330B4202D0FFF7D1FE0C4331
:101DA4000432B2F5907F4FEA4101EAD14E4B1B68F1
:101DB400012B0AD14FF4BE70FFF7C2FE4FF0A043CF
:101DC40044F00044D3F81035039314F0FF0F1AD0F5
:101DD400464F00250126344210D0AB0003F1804366
:101DE40003F5C043D3F81005D3F8101557F8253080
:101DF40023B1C1F30141C0F3042098470135082DF4
:101E04004FEA4606E7D1002C65DA00214FF0FF3394
:101E1400CDE90413354D01274FF0000A344ED14665
:101E24004FF0A04816F9013B5A1C45D0C3F3C20138
:101E340006AA5018DCB210F8042C03F03F0B03F090
:101E4400070307FA03F31A4236D005EB0B02A40981
:101E540092F9302055F8222052B9032C2CD10DF1DF
:101E6400100E1EF801C04CEA030C0EF801C001E08C
:101E7400032CF4D00BF5E07110F80C0C58F8211079
:101E84001842C1F3014105D0022915D1032C0FD109
:101E9400214604E003290FD1032C09D1022158461D
:101EA400019209F10109FFF757FE019A5FFA89F9D6
:101EB40012B12146584690470AF1010ABAF1040FBB
:101EC400B0D1B9F1000F06D04FF0A043039AD3F874
:101ED4001035934202D107B0BDE8F08F0393049B01
:101EE400059399E7006000407C61004028070020CA
:101EF40078070020014B1B68184700BF84070020A7
:101F040038B50B4B98420C4601D0002038BD002058
:101F1400FFF726F9074B1D7915B901221C601A71C8
:101F24000020FFF71FF9002DEFD01120EEE700BFCE
:101F34000020004084070020034B984201BF034B5C
:101F440000221A601A7170470020004084070020A4
:101F5400114BD3F8183182B0E3B1104B00221A6050
:101F64001B680193019B0E4BD97FFF2907D0987FF3
:101F740001228A404FF0A04148B1C1F80C2500224B
:101F84005A771A72D3E90021064802B01047C1F803
:101F94000825F4E702B070470030004018310040D3
:101FA4008C070020940700202DE9F74F0679009054
:101FB40090464FF0240A694A01930AFB06FA02EBA1
:101FC4000A0B0C469BF81C109146002940F0C28075
:101FD400056863492846FFF793FF002840F0BC805A
:101FE40049F80A80019BCBF8043094F800C0227BA6
:101FF4004FF0A041012303FA0CF3012A94BFC1F866
:102004000C35C1F808350CF5E0734FF0010E41F8BA
:1020140023E06378FF2B1FBF0EFA03FEC1F80CE523
:1020240003F5E07E4FF0030A18BF41F82EA0A17813
:1020340008BF4FF0FF33FF291FBF01F5E07E4FF0CB
:10204400A04A4FF0040B4AF82EB04FF0240E0EFBBA
:10205400069918BF0F4689F82010E17889F81F10F7
:1020640008BF4FF0FF37FF29DFF8F09017D094F83E
:1020740004A04FF0010B0BFA01FB4FF0A04EBAF194
:10208400000F5ED0CEF80CB501F5E0714FF0030BF4
:102094004EF821B0242101FB069181F81EA0C5F859
:1020A40008C5C5F80C35A368C5F81075C5F82435FE
:1020B400637B003B18BF0123022A45D0032A46D084
:1020C400012A01D143F00203C5F85435A379C5F8B8
:1020D400C035B8F1000F02D04023C5F804330723FC
:1020E400C5F80035B8F1000F21D0009B62791B6858
:1020F40043F307310029A8BF01F16044C3F3073358
:10210400BCBF03F00F05174C4FEA4212A8BF04F5F9
:102114006144D2B2B4BF625584F8002303F01F03B4
:10212400012202FA03F349090F4A42F82130242319
:1021340003FB0696002373770123337703B0BDE8CE
:10214400F08FCEF808B59FE743F00403BCE743F0F3
:102154000603B9E70820F1E71120EFE78C07002018
:10216400551F000014ED00E000E100E02DE9F3410B
:102174000679474F242373431446FA180D46517FBA
:102184008646002940F08180FB5823B114F0140FD7
:1021940004BF0123537795E80F004FF0240C0CFB88
:1021A400067C0CF10C0888E80F009CF81F20FF2A1D
:1021B40008D09CF81E10012393404FF0A042C1B1F7
:1021C400C2F80835296821B101F06043B3F1005F1A
:1021D40006D1AA6882B102F06043B3F1005F0BD06C
:1021E400242303FB067600237377102002B0BDE896
:1021F400F081C2F80C35E5E7DEF800306868C3F812
:102204004415C3F84805E968C3F834250022C3F827
:102214003815C3F81821D3F818210192019A14F043
:10222400010218BF0122C3F8502514F0020218BF9E
:102234000122C3F8402522075CBF01221A6124222F
:102244007243BA58B2B9D3F81821002AFBD0242318
:1022540003FB0676F27FFF2A07D0B07F0123934069
:102264004FF0A04218B1C2F80C350020BEE7C2F806
:102274000835BBE714F004004FF0400202D0C3F865
:102284000823F2E7C3F80423B0E71120AEE700BF48
:102294008C0700200023435082B043580193019BD4
:1022A40002B070470A4610B54FF48E71FFF7F2FF83
:1022B400136A9168C95C136A01331362C0F81C1570
:1022C40010BD024608B500684FF49271FFF7E2FFB3
:1022D4004FF484711068FFF7DDFF136801221A6060
:1022E40008BD8B690A4610B54FF4847123B9FFF712
:1022F400D1FFD0F8183510BDFFF7CCFF536AD16871
:10230400D0F81805C854536A01335362F3E7000048
:102314001FB501238DF80030044BCDE90110D3E93A
:1023240000126846904705B05DF804FBB007002032
:1023340030B54B48D0F8043313F4007F85B005461C
:102344004DD0D0F82431002B49D04FF49271FFF7CF
:10235400A1FF4FF40173C0F80833424B93F82920CE
:102364000AB9012242603E4902228DF80020D1F8C8
:102374008024C1F8802403929A690292DA68019257
:102384000022C3E906226846D3E900129047344884
:10239400D0F81C315BB133490A6A4B699A420A4648
:1023A4004AD291F82830002B46D1FFF77BFF2C4806
:1023B400D0F844318BB14FF4A271FFF76BFF294B76
:1023C40093F829200AB1012202609A692AB10022F5
:1023D400586AD9689A61FFF79BFF05B030BDD5F8FC
:1023E40004335B07D3D5D5F80831002BCFD01D4C6F
:1023F4001B482146FFF775FF636AA2699A42234688
:10240400C5D1E269E1684AB12369E3600023606AE7
:10241400A261E3616362FFF77BFFB8E794F82920C8
:102424000AB901226A600E4A4FF40170C2F8080327
:102434000022586A9A61EEE74FF48E710848FFF75C
:1024440029FF51690029B2D00023029191688DF8C7
:102454000030019153616846D2E900139847A6E71A
:1024640000200040B00700202DE9F843574B0579C0
:1024740091462C2202FB0532064692F82A200C468D
:102484009846002A40F09D8051490068FFF738FDC6
:102494000746002840F0978021683368481C0BD019
:1024A4004FF0A04001228A40C0F8082501F5E072EF
:1024B4004FF0030C40F822C06068421C1FBF00F5B7
:1024C400E0724FF0A04C4FF0000E4CF822E0A269ED
:1024D400C3F8242594F814C0627DBCF1010F4CEAC2
:1024E4000202C3F86C25C3F81405C3F80C151DD1FA
:1024F400A1684A1C1FBF01F5E0724FF0A0404FF0E5
:10250400000C40F822C0E268501C0BD04FF0A04CE5
:1025140001209040CCF8080502F5E0704FF0030E5E
:102524004CF820E0C3F80825C3F810152C236B439E
:1025340008EB0302C2F80490226948F80320B9F1B9
:10254400000F2BD03068247F4FF48E71FFF7A2FE6A
:1025540030684FF4A271FFF79DFE32681D4BC2F83C
:102564000433110B42F30732002AA8BF02F1604082
:102574004FEA4413BABF184801F00F0400F5614054
:10258400DBB2B4BF035580F8003301F01F0101230F
:1025940003FA01F15209114B43F822103368042263
:1025A400C3F800252C2303FB05830022C3E906227C
:1025B40083F829205A61012283F82A203846BDE88D
:1025C400F8830827FAE71127F8E700BFB0070020CF
:1025D400352300008000020014ED00E000E100E07B
:1025E400F8B5047900682C4D0023C0F800352C237D
:1025F40003FB04535B686BB1284BC0F8083340F30A
:102604000733C0F304315B0901228A402033244993
:1026140041F82320D0F80C65D0F81415D0F808350B
:10262400D0F810254FF0FF37BE42C0F8147518BF1C
:1026340006F5E076C0F80C75C0F80875C0F810759A
:102644001EBF4FF0A0474FF0020C47F826C04E1CA7
:102654001FBF4FF0A04601F5E071022746F8217034
:10266400511C1FBF4FF0A04102F5E072022641F851
:1026740022605A1C1FBF03F5E0734FF0A0420221F1
:1026840042F82310FFF758FC2C2303FB04540023C7
:1026940084F82A306360F8BDB00700208402020089
:1026A40000E100E02DE9F843204B07794FF02C09B5
:1026B40009FB0734054666699846002E33D1006845
:1026C4006261A16026624FF48E7184F82860FFF77E
:1026D400E1FD2868012383602146FFF7E3FD636879
:1026E400A14683B92868226A63699A4211D32B6888
:1026F400D3F81C21002AFBD00122DA602C2303FB2F
:10270400078300225A613046BDE8F88394F82830E4
:102714003BB9D0F81C31002BF8D04946FFF7C2FD75
:10272400E1E70F26EAE71126EDE700BFB007002036
:102734000379044A2C2101FB03235869003818BF8C
:1027440001207047B00700202DE9F843394F05797F
:102754002C2303FB057306465C6824B103684FF41D
:102764000170C3F808032C2303FB0573986950B167
:10277400D86900283ED024B133684FF40172C3F8FD
:102784000423112433E09A61D9605862D8612C2360
:1027940003FB057393F829301BB910B93046FFF7D2
:1027A40090FD4FF02C0909FB05783068D8F8043007
:1027B400002B34D14FF4A271C146FFF76BFD306892
:1027C400D0F82431D0F80821D0F84441B2B90CB97A
:1027D400002BF4D02C2202FB05750022AA6123BB36
:1027E4002CBB95F8291033680122B1B11A60204638
:1027F400BDE8F8831961DA610120C8E7002BE9D14B
:10280400002CE7D14946FFF76CFDD8F82430D8F8FE
:1028140018209A42D3D82346DCE75A60E7E74FF4FE
:102824000173C0F804330024E1E70324DFE70F2435
:10283400DDE700BFB00700200023435082B04358B7
:102844000193019B02B070471FB501238DF800303E
:10285400044BCDE90110D3E900126846904705B056
:102864005DF804FBDC0700207FB5364AD2F824610A
:10287400002E46D010464FF49271FFF7DDFF02237D
:102884008DF80030D2F88034C2F880340393D2F843
:102894003C3502932C4BDA6801920022C3E90622EC
:1028A4006846D3E9001290472648D0F8443173B102
:1028B4004FF4A271FFF7C0FF234B9A693AB100228B
:1028C400C3E90622D968D0F83C05FFF7BDFF1D48CF
:1028D400D0F820319BB14FF49071FFF7ADFF1A4B44
:1028E4005A6962B1D0F84C150291002299688DF8AA
:1028F400002001915A616846D3E90012904704B060
:1029040070BDD2F81031002BCED04FF48871104630
:10291400FFF792FF0C4BD2F83C0599698842C3D16A
:10292400DC69D96864B1D2F8005225F02005C2F8F8
:1029340000521A699C61DA60DE61FFF785FFB3E734
:102944009C61FAE700200040DC0700202DE9F843F1
:102954005B4B06799146242202FB0632044692F828
:1029640020200D469846002A40F0A580554900686D
:10297400FFF7C6FA0746002840F09F8029682368BD
:10298400481C0BD04FF0A04001228A40C0F8082513
:1029940001F5E0724FF0030C40F822C06868421C55
:1029A4001FBF00F5E0724FF0A04C4FF0000E4CF842
:1029B40022E0AA69C3F8242595F814C06A7DBCF105
:1029C400010F4CEA0202C3F86C25C3F80C15C3F8D6
:1029D40014051DD1A9684A1C1FBF01F5E0724FF010
:1029E400A0404FF0000C40F822C0EA68501C0BD005
:1029F4004FF0A04C01209040CCF8080502F5E0709F
:102A04004FF0030E4CF820E0C3F80825C3F8101566
:102A14002423734308EB0302C2F804902A6948F89C
:102A24000320B9F1000F35D020682A7F4FF4887154
:102A3400FFF702FF20684FF49071FFF7FDFE206856
:102A44004FF49271FFF7F8FE20684FF4A271FFF77C
:102A5400F3FE23681C49C3F80413190B43F307332B
:102A6400002BAEBF03F1604001F00F0517484FEA99
:102A74004212A8BF00F56140D2B2B4BF425580F8FB
:102A8400002301F01F01012202FA01F15B09104A3F
:102A940042F8231023680822C3F80025242303FBEB
:102AA40006830022C3E906225A61012283F820200A
:102AB4003846BDE8F8830827FAE71127F8E700BF8E
:102AC400DC0700206D2800001003020014ED00E074
:102AD40000E100E0F8B5047900682C4D0023C0F84B
:102AE4000035242303FB04535B686BB1284BC0F807
:102AF400083340F30733C0F304315B0901228A40F1
:102B04002033244941F82320D0F80C65D0F814155B
:102B1400D0F80835D0F810254FF0FF37BE42C0F882
:102B24000C7518BF06F5E076C0F81475C0F8087582
:102B3400C0F810751EBF4FF0A0474FF0020C47F8C5
:102B440026C04E1C1FBF4FF0A04601F5E0710227BE
:102B540046F82170511C1FBF4FF0A04102F5E072EE
:102B6400022641F822605A1C1FBF03F5E0734FF0A0
:102B7400A042022142F82310FFF7DEF9242303FBCD
:102B84000454002384F820306360F8BDDC0700207F
:102B94001003020000E100E001F06043B3F1005FC4
:102BA4002DE9F041064632D11B4B0779242505FB5C
:102BB400073598466C6964BB6A610068A9604FF484
:102BC4009071FFF739FE4FF4AC713068FFF734FEB3
:102BD40033686A69A968C3F84415C3F84825012213
:102BE4009A606A6862B9D3F82021D3F8584152B97F
:102BF400002CF8D00F24242303FB078700237B61D8
:102C04002046BDE8F081002C18BF0F24F3E7102400
:102C1400F6E71124F4E700BFDC0700200379044A37
:102C2400242101FB03235869003818BF0120704791
:102C3400DC070020F8B501F06043B3F1005F0446FF
:102C44000F465ED10379304D242101FB03514968BD
:102C540021B100684FF40476C0F80863242000FB17
:102C640003539E6956B1D869002839D021B123682D
:102C74004FF40472C3F80423112030E09A61DF603A
:102C8400DE6120684FF48871FFF7D6FD20684FF4A9
:102C9400A271FFF7D1FD2368C3F83475C3F8382552
:102CA40016BB01221A602179242202FB01525268C8
:102CB4000ABBD3F81041D3F84421D3F824011443B8
:102CC40002D10028F5D02246242303FB015500231A
:102CD400984218BF03209A42AB6118BF0F20F8BD79
:102CE4001F61DA610126CCE7D3F8002242F020020A
:102CF400C3F80022D7E74FF40472C3F8042300207A
:102D0400EDE71020EBE700BFDC070020014B0122B8
:102D14001A707047000800200378022B02D1406823
:102D2400FDF7F0BF012BFAD070470000024B800181
:102D340043F00103184700BFD0410000F0B5474DF0
:102D44008BB00120FDF7C3FF0FCD04AC0FC495E891
:102D54000300434B434A00934FF4807384E8030019
:102D6400CDE902230193404A0723694604A8FEF7EC
:102D7400A5FD08B1FDF7C6FF3C4800F0FBFC00F0E0
:102D84001DFA4FF0A0434FF48002C3F80C254FF412
:102D94000002C3F80C25FEF7FDFE10B1344800F024
:102DA400E9FC4FF48173ADF80030324A02236946DE
:102DB40018208DF80230FEF725FF10B12E4800F0E0
:102DC400D9FC00F087FB00F016FA47F23050FFF709
:102DD400ADFF00F017FA4FF49670FFF7A7FF00F06D
:102DE40031FB4FF49670FFF7A1FF244800F054FB29
:102DF400234800F0BFFC234800F0BCFC00F0FBF9C2
:102E040047F23050FFF792FF00F0FCF900F072FA3D
:102E140000F076FA4FF0A042D2F81035DB01FBD572
:102E240001211820184D194FFEF75EFF2E462B780E
:102E3400002BFCD04FF4FA70FFF778FF00F0CEFBC4
:102E44000146384600F096FC4FF4FA744FF47A7059
:102E5400FFF76CFF013CF9D13470E8E7B44100009E
:102E640001080020010900201D2D0000534100002D
:102E74006D410000112D0000854100004300002039
:102E840096410000A541000000080020DF41000039
:102E9400BFF34F8F0549064BCA6802F4E06213433F
:102EA400CB60BFF34F8F00BFFDE700BF00ED00E034
:102EB4000400FA050C4B1B78062B10D10B4B1B6836
:102EC4001A070CD10A4B186800F0F003302B08D015
:102ED40000F0E000A0F14003584258417047002040
:102EE40070470120704700BFE00F00F0E40F00F0CE
:102EF400E80F00F0094B1B78062B0CD1084B1B681C
:102F04001A0708D1074B186800F0F000A0F130034D
:102F14005842584170470020704700BFE00F00F04E
:102F2400E40F00F0E80F00F008B5FFF7C3FF28B185
:102F3400894B8A4A1B68C3F304231360FFF7DAFF43
:102F440010B1874B874A1A60FFF7B4FF28B1864B4C
:102F5400864A1B68C3F342331360FFF7CBFF20B1EB
:102F6400834AD36823F08073D360FFF7A3FF40B193
:102F74004FF080430022C3F80C21C3F81021C3F89A
:102F84003825FFF7B7FF10B17A4B03221A60FFF719
:102F9400B1FF40B1784B05221A6001229A670022E2
:102FA4009A603F225A60754B1B78062B50D1744BA4
:102FB4001B6818074CD1734B1B6803F0F003502BAC
:102FC40046D14FF08052704BD2F80414C3F8201548
:102FD400D2F80814C3F82415D2F80C14C3F8281531
:102FE400D2F81014C3F82C15D2F81414C3F8301501
:102FF400D2F81814C3F83415D2F81C14C3F84015C9
:10300400D2F82014C3F84415D2F82414C3F8481590
:10301400D2F82814C3F84C15D2F82C14C3F8501560
:10302400D2F83014C3F85415D2F83414C3F8601528
:10303400D2F83814C3F86415D2F83C14C3F86815F0
:10304400D2F84014C3F86C15D2F84424C3F87025A0
:10305400FFF730FF28B14D4B4D4A1B6803F04F0377
:103064001360FFF727FF48B14FF08043D3F80024E3
:10307400D10744BF6FF00102C3F80024454B1B681D
:10308400062B08D1444B1B68062B01BF434A136827
:1030940043F480631360424AD2F8883043F47003E7
:1030A400C2F88830BFF34F8FBFF36F8F4FF01023F8
:1030B400D3F80C22D2071ED53A4B0122C3F80425BB
:1030C400D3F80024002AFBD04FF01022D2F80C329F
:1030D40023F00103C2F80C32324B1A46D3F8001421
:1030E4000029FBD00021C3F80415D2F80034002BCA
:1030F400FBD0FFF7CDFED3F80022002A03DBD3F880
:103104000432002B23DA274B0122C3F80425D3F819
:103114000024002AFBD04FF010221521C2F800121F
:10312400D3F80024002AFBD04FF010231522C3F853
:1031340004221C4B1A46D3F800140029FBD00021AA
:10314400C3F80415D2F80034002BFBD0D1E7164B9A
:10315400164A1A6008BD00BF240300104035014020
:1031640074C007400DF0ADBA440200103C050040A5
:10317400F0ED00E0A005004010560040E00F00F024
:10318400E40F00F0E80F00F000C000405802001007
:10319400E40E004030010010340100103C170040E0
:1031A40000ED00E000E00140300000200090D0037A
:1031B400014B01221A707047210A00204FF0A043EE
:1031C40003224FF48001C3F86427C3F85827C3F8D7
:1031D4000C15C3F85C274FF40002C3F80C257047A4
:1031E4004FF0A0434FF48002C3F80825C3F80C2520
:1031F400C3F8082570474FF0A0434FF40002C3F80A
:10320400082570474FF0A0434FF00072C3F80C2517
:10321400704700001FB5134B0FCB6C4684E80F00BA
:10322400114B00934FF0806302930123ADF80C30EF
:103234000E4A0F4800232146FEF7DEFB08B1FDF7D6
:1032440061FD4FF0A0434FF48002C3F80C25094BF5
:1032540040221A7001225A7000229A70DA7004B067
:1032640010BD00BF004200001A1D1E19B531000038
:1032740018420000110A0020F0B54FF0A043194D88
:10328400194F1A4C4FF0007285B0C3F80C2506464E
:10329400C3F808250021C3F80C252846102200F0A5
:1032A400C3FA10220021384600F0BEFA1023CDE9FB
:1032B4000137002201230E48227069462E700095C2
:1032C4000393FEF753FF08B1FDF71CFD23783BB1D0
:1032D4004FF0A0434FF00072C3F8082505B0F0BDCD
:1032E40020BFF3E7110A0020010A0020210A002070
:1032F4001C4200001020FFF7BFBF1120FFF7BCBF26
:103304001A20FFF7B9BF00002DE9FF41431E05460F
:103314000C460A2B09D8DFE803F006353A080808FA
:103324003F4245484D0001F08704254EDFF89C805C
:10333400244F10220021304600F076FA102200219A
:10334400404600F071FA4FF0A04300224FF00071A4
:1033540045F040053A7035707270B470C3F80C15BE
:103364001023CDE9013818480096032369460393D6
:10337400FEF7FCFE08B1FDF7C5FC3B78EBB104B0E9
:10338400BDE8F08101F0FB0444F08004CDE701F0D6
:10339400FD0444F01004C8E701F03F04C5E701F060
:1033A4005F04C2E741F00204BFE701F0870444F080
:1033B4000104BAE701F00F04B7E720BFDDE700BF5F
:1033C400110A0020210A00201C420000010A0020EA
:1033D400F0B5184F184C194E85B00546102200213F
:1033E400384600F021FA10220021204600F01CFA91
:1033F40001237B704FF0A0434FF00071002245F091
:10340400200532703D70C3F80C151023CDE901344A
:103414000B480097032369460393FEF7A7FE08B100
:10342400FDF770FC337813B1A07805B0F0BD20BF70
:10343400F8E700BF110A0020010A0020210A002039
:103444001C42000038B54FF0A0434FF00072C3F89F
:103454000C25C3F80825C3F80C250C4B1B7833F056
:1034640020034FF0010408D1094D295DE0B2013475
:10347400FFF74AFF0C2CF8D138BD064D295DE0B2A8
:103484000134FFF741FF0C2CF8D1F5E7430000208D
:1034940034000020530000204FF0A04370B54FF0DB
:1034A40000720B4EC3F80C250546C3F8082500240A
:1034B400C3F80C25E0B2FFF78BFF214628550246DE
:1034C4000134304600F056F90C2CF3D170BD00BF26
:1034D400D641000037B5FFF79DFE3E4800F04AF99B
:1034E400FFF77EFE0023ADF8063044F61F61BDF8F9
:1034F4000620ADF8043092B2012A2DD944F61F6299
:10350400BDF804309BB293424ED90023ADF8043089
:1035140044F61F62BDF804309BB293424BD900239A
:10352400ADF8043044F61F62BDF804309BB29342F8
:1035340048D9294DFFF7E1FE642445F001054FF415
:103544007A40A847013CFAD103B030BDBDF804204D
:10355400013292B2ADF80420BDF8042092B28A423E
:10356400F4D9ADF80430BDF8042092B28A420DD9E2
:10357400ADF80430BDF8042092B28A420DD9BDF8EA
:103584000620013292B2ADF80620B0E7BDF804205F
:10359400013292B2ADF80420E5E7BDF8042001320F
:1035A40092B2ADF80420E5E7BDF8043001339BB2D4
:1035B400ADF80430A4E7BDF8043001339BB2ADF894
:1035C4000430A7E7BDF8043001339BB2ADF80430F2
:1035D400AAE700BFE4410000104200007FB5184E86
:1035E400184C194D10220021304600F01DF910220C
:1035F4000021204600F018F90623002213482A70FF
:103604006946CDE9013400960393FEF7AFFD08B196
:10361400FDF778FB2B7883B194F90330E078002B25
:10362400B4BF4FF47F4300231844237903EB0023F2
:10363400607900EB032004B070BD20BFEAE700BF4F
:10364400110A0020010A0020210A00201C42000067
:103654007F2805D8034B185C034B5B5C184070470C
:103664000020704734420000B4420000A0F161031E
:10367400192B98BF20387047A0F14103192B98BF2C
:10368400203070477F2805D8034B185C034B5B5CE4
:10369400184070470020704734420000B4420000D4
:1036A400A0F16103192B98BF20387047A0F14103A2
:1036B400192B98BF203070477F299ABF01700120D1
:1036C4006FF02E0070475AB10A787F2A0AD800B1E9
:1036D4000260002119605960501A18BF0120704718
:1036E400002070476FF02E00704738B50446084636
:1036F400A26842B1236861685D1C8D4208BF002046
:103704008B4208D2D054E3682BB12168626891429D
:1037140001D22146984723680133236038BD70B530
:103724004C1E09D41646C5B229463046FFF7DDFFC4
:10373400013CB4F1FF3FF7D170BD10F0100F08D178
:1037440008B510F4007F14BF30202020FFF7E7FFF6
:1037540008BD704708B5034B5B689B681B689847B6
:1037640008BD00BF6400002008B50921FFF7F2FF7F
:1037740008BD00000FB410B586B008AB53F8044B75
:103784000593002303936FF000430293084B0493C3
:1037940000F0ADF8059A214601A800F0ABF8044604
:1037A40000F0A6F8204606B0BDE8104004B070470B
:1037B400CB170000037853B159B10144034613F801
:1037C400012F12B18B42FAD10B46181A70470346E7
:1037D400FBE70346F9E7844640EA010313F0030FCD
:1037E40018D18446202A0BD32DE9F007B1E8F80755
:1037F400A0E8F807A2F12002202AF7D2BDE8F007DA
:10380400042A07D351F8043B40F8043BA2F1040214
:10381400042AF7D2002A05D011F8013B00F8013B35
:10382400013AF9D1604670478446002A2DD010F041
:10383400030F04D000F8011B013A26D0F7E7C9B200
:1038440041EA012141EA0141202A12D3A2F12002D6
:103854002DE9F0030B460C460D460E460F468846EE
:103864008946A0E8FA03203AFBD2BDE8F0032032EF
:103874000BD0042A05D340F8041B043A05D0042ACB
:10388400F9D200F8011B013AFBD16046704700F100
:10389400010110F0030F11D010F8012B002A23D0DE
:1038A40010F0030F0AD010F8012B002A1CD010F0DE
:1038B400030F03D010F8012B002A15D02DE9700056
:1038C4004FF001324FF0803350F8044BA4EB020563
:1038D40025EA04051D4000D1F6E7A0F1040070BC00
:1038E40010F8012B002AFBD1A0EB010070477047B0
:1038F400704700002DE9F04F89B00746039200237A
:1039040003600C4614F8011B002900F00F83DFF854
:1039140014B5FBE2002507E05E2868D145F4805524
:1039240001E045F040051C46234613F8010B3028FE
:10393400F2D81F2837D9A0F12002102A33D801A1C8
:1039440051F822F027390000AB390000AB390000F0
:103954008D390000AB390000AB390000AB390000F1
:1039640093390000AB390000AB390000AB390000DB
:1039740099390000AB3900009F390000AB390000D1
:10398400AB390000A539000045F08005CBE745F4CC
:103994000045C8E745F02005C5E745F01005C2E736
:1039A40045F40075BFE72A2821D1039A111D03911C
:1039B400D2F800A0BAF1000FBCBFCAF1000A45F06A
:1039C40010051878A31C2AEAEA7A2E2826D00021AA
:1039D400742847D07A2845D06C2800F0A8804C2859
:1039E40000F0AB80682800F0B8801C463DE0A0F1F0
:1039F4003002D2B2092A88BF4FF0000AE3D84FF050
:103A0400000A0AEB8A0A303800EB4A0A13F8010B61
:103A1400A0F13002D2B2092AF3D9D4E718782A28BF
:103A24000AD1039A111D03911168587802330029B1
:103A3400CEDB45F48075CBE70133A0F13002D2B27E
:103A4400092A88BF0021F4D8002101EB8101303814
:103A540000EB410113F8010BA0F13002D2B2092AA4
:103A6400F3D9E4E71C4614F8010B002800F06A823D
:103A7400A0F12503DBB2532B62D8A0F12503532B0D
:103A84005ED8DFE813F076005D005D005D005D0048
:103A94005D005D005D005D005D005D005D005D003A
:103AA4005D005D005D005D005D005D005D005D002A
:103AB4005D005D005D005D005D005D005D005D001A
:103AC4005D005D005D005D005D005D005D005D000A
:103AD4005D005D005D005D005D005D005D005D00FA
:103AE4005D005D005D005D005D005D00EB005D005C
:103AF4005D005D005D005D005D005D005D005D00DA
:103B04005D007B0020015D005D005D005D00200123
:103B14005D005D005D005D0095000E01D1005D005B
:103B24005D00A6005D0019015D005D00ED001C460E
:103B340014F8010B45F0010597E745F001051C4613
:103B4400B44B1E68002E00F0DE8103AB019300919C
:103B540053462A463946B047D5E11878682803D039
:103B64005C1C45F0040580E745F008059C1C58786A
:103B74007BE725213846FFF7B8FDC4E1039B1A1DF6
:103B840003921E780AF1FF3A3A4651462846FFF757
:103B9400D4FD31463846FFF7A8FDA94619F0100FA9
:103BA40000F0B1813A4651462020FFF7B8FDAAE162
:103BB40015F0080F06D03A68039B191D03911B6882
:103BC4001A70A0E1039B1A1D03921B683A681A60DD
:103BD40099E1039B1A1D0392D3F800808E4BB8F130
:103BE400000F08BF9846464625F4007915F4807FF7
:103BF40015D04046FFF7DEFD0546AAEB050A3A4616
:103C040051464846FFF799FD002DC7D0454416F8A4
:103C1400011B3846FFF769FDAE42F8D1BEE74046C6
:103C2400FFF735FE0546E8E7039B1A1D03921B6860
:103C340015F0800F0CBF0026232645F4807508215B
:103C44001A46002B00F02C8105AB4FF0000805F458
:103C5400005CA64660468C460146D1E045F400551A
:103C640015F0800F1BD043F2780643F258037828EE
:103C740018BF1E4615F4807F01D025F4007515F495
:103C8400804F32D0039B1A1D03921B6815F0040F5A
:103C94001FD01BB2002B20DA5B422D262DE000261C
:103CA400E8E715F0800F0CBF0026302615F4807F5E
:103CB400E5D025F40075E2E715F4807F07D025F4FC
:103CC40000750026DBE745F480450026D7E700268B
:103CD400D5E715F0080FDDD0DBB215F0200F60D169
:103CE40015F0400F18BF202607E0039B1A1D03920E
:103CF4001B6815F0040F4FD09BB215F4807F14BFDE
:103D040025F4007501215838202800F2AE8001A264
:103D140052F820F0453C00006F3E00006F3E00006A
:103D24006F3E00006F3E00006F3E00006F3E0000DB
:103D34006F3E00006F3E00006F3E00006F3E0000CB
:103D44006F3E0000D33D00006F3E00006F3E000058
:103D54006F3E00006F3E0000D33D00006F3E000048
:103D64006F3E00006F3E00006F3E00006F3E00009B
:103D7400AB3D0000453C00006F3E00006F3E00007C
:103D84006F3E00006F3E0000D33D00006F3E000018
:103D94006F3E0000453C000015F0080FADD0DBB2CB
:103DA400ABE72B26A9E71A464FF00008002B5ED09C
:103DB40005A84FF0000803F00703303300F8013B77
:103DC40008F10108D2081346002AF4D14FE018463E
:103DD4004FF00008002B4AD04FF0000805F4004EC5
:103DE4004FF02C0973468E4619462FE002F00F005F
:103DF4000A4C205C03F8010B08F10108120906D0F3
:103E04000029F3D002F00F00054C205CF2E7744661
:103E140061462CE0240A0020884400006844000025
:103E240078440000CDCCCCCC08AB03EB080CABFB46
:103E34000032D20802EB8203A0EB430330330CF8C8
:103E44000C3C08F1010809280DD910460029EBD0D3
:103E540008F00303032BE7D108AB434403F80C9C9D
:103E640008F10108E0E7714601E04FF00008A1EB1A
:103E7400080121EAE179AAEB090AAAEB080AFF2E54
:103E840011D9AAF1020A15F4007F11D0C6F3072153
:103E94003846FFF72AFCF1B23846FFF726FC13E058
:103EA4004FF00008E3E7002E4FD115F4007F0BD14B
:103EB4003A4651462846FFF740FCFF2E98BF4FF084
:103EC400000A2AD8002EE6D13A4651462846FFF782
:103ED40034FC3A4649463020FFF721FCB8F1000F84
:103EE4000EDD0DF1140908F1FF38C84498F80010EC
:103EF40046463846FFF7F9FBC14508F1FF38F5D1CE
:103F040015F0100F0CD114F8011B79B125293FF4D9
:103F140001AD3846FFF7E9FBF5E74FF0000AB5E7D6
:103F24003A4651462020FFF7FAFBECE7BB682BB179
:103F34003A6879688A423CBF00219954386809B0CC
:103F4400BDE8F08F4FF0FF30F9E70AF1FF3A15F4BE
:083F5400007FB7D1ACE700BF0C
:103F5C0038410000000000003F410000000000005C
:103F6C004341000000000000484100000000000038
:103F7C004D41000000000000FE3F00000000030364
:103F8C00D03F000000000000DC3F000014000020C7
:103F9C00BC000020840100208C010020C400002003
:043FAC0018000000F9
:103FB000FFFFFFFFFFFFFFFFFFFFFFFFFFFFFFFF11
:103FC00000000000000000000000D6010601000013
:103FD0000505000069050000A50400007561727404
:103FE0005F6C6F675F6261636B656E640042616303
:103FF0006B656E647320666C7573686564006170D0
:1040000070001B5B306D002573001B5B313B33314F
:104010006D0025734C6F67732064726F70706564F8
:10402000202825642925730D0A003C25733E202590
:10403000733A2000202530327800202020007C00B8
:104040002563001B5B313B33306D001B5B313B3321
:10405000326D001B5B313B33336D001B5B313B33F7
:10406000346D001B5B313B33356D001B5B313B33E3
:10407000366D001B5B313B33376D007761726E69C3
:104080006E6700696E666F006465627567000000A8
:1040900002400000434000000A4000004B40000086
:1040A000534000005B400000634000006B40000094
:1040B0007340000000000000D24000007B40000080
:1040C000834000008840000013131414466174619B
:1040D0006C206572726F720053797374656D207213
:1040E000657365740000000000000000000000001F
:1040F0000338FDD8704730313233343536373839EC
:104100004142434445460000FFFFFFFFFFFFFFFF22
:10411000FFFFFFFFFFFFFFFF0000000000000000A7
:104120000000D60106010000FFFFFFFF0006FF00B0
:1041300000000040000000004750494F5445005027
:104140005253005350494D0055415254005541526D
:104150005445000D0A55415254206578616D706CCC
:104160006520737461727465642E0D0A000D0A4433
:10417000726976657220696E6974206661696C6522
:1041800064210A0D000D0A496E6974206661696C2C
:104190006564210A0D000D0A52756E6E696E672EF8
:1041A0002E2E0A0D000A0D61736466617364660A3F
:1041B0000D000000080000000600000005000000DF
:1041C000070000000000000000E0D7010000000030
:1041D0000338FDD870470D0A25643A2C202020258D
:1041E000780A0D000D0A535049206578616D706C96
:1041F0006520737461727465642E0A0D00000000FE
:10420000FFFFFFFF06FF000000000040000000006D
:104210000338FDD870470000000000000030004067
:10422000000000000100000043000000504F53490F
:10423000580000002020202020202020206828284E
:10424000282820202020202020202020202020205E
:1042500020202020481010101010101010101010E6
:1042600010101010848484848484848484841010C6
:1042700010101010108181818181810101010101E3
:10428000010101010101010101010101010101100F
:1042900010101010108282828282820202020202B8
:1042A00002020202020202020202020202020210E0
:1042B00010101020000703200417020108571040B7
:1042C00080000000284200002C4300004044000011
:1042D00053756E004D6F6E00547565005765640030
:1042E0005468750046726900536174000000000054
:1042F0004A616E00466562004D6172004170720055
:104300004D6179004A756E004A756C004175670011
:10431000536570004F6374004E6F76004465630010
:1043200000000000414D00504D00000064440000BA
:1043300060440000604400006044000060440000ED
:1043400060440000604400006044000060440000DD
:1043500060440000FFFFFFFFFFFFFFFFFFFFFFFFC5
:10436000FFFF0000A0430000D0420000DC4300003B
:10437000F042000024430000844300003444000065
:1043800090430000256D2F25642F25790000000043
:10439000256120256220256520255420255900000F
:1043A00053756E646179004D6F6E64617900547568
:1043B0006573646179005765646E65736461790043
:1043C000546875727364617900467269646179003A
:1043D0005361747572646179000000004A616E7502
:1043E000617279004665627275617279004D617221
:1043F000636800417072696C004D6179004A756EA6
:1044000065004A756C790041756775737400536572
:104410007074656D626572004F63746F62657200DF
:104420004E6F76656D62657200446563656D6265A9
:104430007200000025483A254D3A2553000000003F
:1044400055360000713600007D36000089360000C8
:10445000A5360000B1360000BD360000CB360000A6
:10446000000000002E000000303132333435363782
:1044700038396162636465663031323334353637DA
:0F4480003839414243444546286E756C6C29001B
:10449000000000000020004000000000002000405C
:1044A0000000000000000000FF000000000000000D
:1044B000002000400000000000200040000000003C
:1044C0000090D0030002E0F000002C0F00EA830C03
:1044D0000000000002E0F000002C0F00EA030C00D6
:1044E0000000000002E0F000002C0F0002030C00AE
:1044F00000000000C4420000C4420000C4420000AA
:08450000C4420000C4420000A7
:040000030000037581
:00000001FF
